:1000000012C024C023C022C021C020C01FC01EC0F7
:100010001DC01CC01BC01AC019C018C017C016C014
:1000200015C014C013C011241FBECFE5D4E0DEBF3D
:10003000CDBF10E0A0E6B0E0E6E0F1E002C0059040
:100040000D92A036B107D9F73DD05BC0D9CF813032
:10005000910561F4AD98C7989398C69AAB9AA99AFE
:10006000929AC09A979AAA9AAC9A1EC08230910529
:1000700061F4AD989398C698C79AC29A919A949A47
:10008000959A969A909AA89A08958330910561F46A
:10009000AD98C7989698C39AAB9AA99A929AC09A23
:1000A000979AAA9AAC9A0895049759F4C798939886
:1000B000C698AD9AC29A919A949A959A969A909A5D
:1000C000A89A0895A59ABF9A8B9ABE9ABA9A899AC5
:1000D0008C9A8D9A8E9A889AA09AA39AA19A8A9AB3
:1000E000B89A8F9AA29AA49A81E090E0B0DF82E059
:1000F00090E0ADDF83E090E0AADF84E090E0A7DF4E
:06010000F3CFF894FFCFDD
:00000001FF
