S01C00006176722D70726F6772616D6D696E672D746573742E7372656302
S113000012C024C023C022C021C020C01FC01EC0F3
S11300101DC01CC01BC01AC019C018C017C016C010
S113002015C014C013C011241FBECFE5D4E0DEBF39
S1130030CDBF10E0A0E6B0E0E6E0F6E002C0059037
S11300400D92A036B107D9F7C8D2DBC2D9CF61155A
S11300507105A9F4009729F4AD98C7989398C69AA6
S113006006C0019721F4AD98C7989698C39AAB9AA5
S1130070A99A929AC09A979AAA9AAC9A08956130CA
S11300807105A1F4009729F4AD989398C698C79A7E
S113009006C0019721F4C7989398C698AD9AC29A5E
S11300A0919A949A959A969A909AA89A0895611515
S11300B0710581F4009729F4AD98C7989398C69A6E
S11300C006C0019721F4AD98C7989698C39AA99A47
S11300D0929A08956130710579F4009729F4AD98E6
S11300E09398C698C79A06C0019721F4C798939825
S11300F0C698AD9A919A949A08956115710599F4E8
S1130100009729F4AD98C7989398C69A06C00197AA
S113011021F4AD98C7989698C39AAB9AA99AC09AB5
S1130120979AAC9A08956130710591F4009729F477
S1130130AD989398C698C79A06C0019721F4C798BA
S11301409398C698AD9AC29A919A959A969AA89AB3
S113015008956115710599F4009729F4AD98C7982D
S11301609398C69A06C0019721F4AD98C7989698BB
S1130170C39AAB9AA99A929AC09AAC9A089561309C
S1130180710591F4009729F4AD989398C698C79A8D
S113019006C0019721F4C7989398C698AD9AC29A5D
S11301A0919A949A959AA89A08956115710591F473
S11301B0009729F4AD98C7989398C69A06C00197FA
S11301C021F4AD98C7989698C39AA99A929AAA9A34
S11301D0AC9A08956130710589F4009729F4AD98BB
S11301E09398C698C79A06C0019721F4C798939824
S11301F0C698AD9A919A949A909AA89A089561157E
S1130200710599F4009729F4AD98C7989398C69A04
S113021006C0019721F4AD98C7989698C39AAB9AF3
S1130220929AC09AAA9AAC9A08956130710591F491
S1130230009729F4AD989398C698C79A06C0019779
S113024021F4C7989398C698AD9AC29A949A959AAD
S1130250909AA89A089561157105A1F4009729F45C
S1130260AD98C7989398C69A06C0019721F4AD98A3
S1130270C7989698C39AAB9A929AC09A979AAA9A50
S1130280AC9A08956130710599F4009729F4AD98FA
S11302909398C698C79A06C0019721F4C798939873
S11302A0C698AD9AC29A949A959A969A909AA89A50
S11302B008956115710589F4009729F4AD98C798DC
S11302C09398C69A06C0019721F4AD98C79896985A
S11302D0C39AAB9AA99A929A08956130710581F4F0
S11302E0009729F4AD989398C698C79A06C00197C9
S11302F021F4C7989398C698AD9AC29A919A949A01
S113030008956115710599F4009729F4AD98C7987B
S11303109398C69A06C0019721F4AD98C798969809
S1130320C39AAB9AA99A929AAA9AAC9A0895613000
S1130330710591F4009729F4AD989398C698C79ADB
S113034006C0019721F4C7989398C698AD9AC29AAB
S1130350919A949A909AA89A089561157105A1F4B6
S1130360009729F4AD98C7989398C69A06C0019748
S113037021F4AD98C7989698C39AAB9AA99A929A81
S1130380C09A979AAA9A08956130710599F40097D2
S113039029F4AD989398C698C79A06C0019721F49A
S11303A0C7989398C698AD9AC29A919A949A959A36
S11303B0969A909A08956115710579F4009729F435
S11303C0AD98C7989398C69A06C0019721F4AD9842
S11303D0C7989698C39AAC9A08956130710571F4E0
S11303E0009729F4AD989398C698C79A06C00197C8
S11303F021F4C7989398C698AD9AA89A0895611560
S11304007105A9F4009729F4AD98C7989398C69AF2
S113041006C0019721F4AD98C7989698C39AAB98F3
S1130420A9989298C0989798AA98AC980895613022
S11304307105A1F4009729F4AD989398C698C79ACA
S113044006C0019721F4C7989398C698AD9AC298AC
S113045091989498959896989098A89808950F9341
S11304601F93CF93DF9300E010E0AFC0BE01C8013B
S1130470A2DF2FEF80E792E0215080409040E1F727
S113048000C00000BE01C801BADFBE01C80165DFBB
S11304902FEF80E792E0215080409040E1F700C0C8
S11304A00000BE01C801ABDFBE01C80100DE2FEFB2
S11304B080E792E0215080409040E1F700C00000C6
S11304C0BE01C8019CDFBE01C80117DE2FEF80E723
S11304D092E0215080409040E1F700C00000BE014E
S11304E0C8018DDFBE01C80134DE2FEF80E792E042
S11304F0215080409040E1F700C00000BE01C801D7
S11305007EDFBE01C80151DE2FEF80E792E021506B
S113051080409040E1F700C00000BE01C8016FDFD9
S1130520BE01C8016CDE2FEF80E792E021508040CD
S11305309040E1F700C00000BE01C80160DFBE01C9
S1130540C80189DE2FEF80E792E02150804090407F
S1130550E1F700C00000BE01C80151DFBE01C801BF
S1130560A8DE2FEF80E792E0215080409040E1F731
S113057000C00000BE01C80142DFBE01C80167DD42
S11305802FEF80E792E0215080409040E1F700C0D7
S11305900000BE01C80133DFBE01C801B2DE2FEF87
S11305A080E792E0215080409040E1F700C00000D5
S11305B0BE01C80124DF2196C230D10509F056CF0F
S11305C00F5F1F4F0230110519F0C0E0D0E04ECF8D
S11305D0DF91CF911F910F910895A59ABF9A8B9A9D
S11305E0BE9ABA9A899A8C9A8D9A8E9A889AA09A67
S11305F0A39AA19A8A9AB89A8F9AA29AA49A2FDF58
S1090600FECFF894FFCFC9
S9030000FC
