S01C00006176722D70726F6772616D6D696E672D746573742E7372656302
S113000012C024C023C022C021C020C01FC01EC0F3
S11300101DC01CC01BC01AC019C018C017C016C010
S113002015C014C013C011241FBECFE5D4E0DEBF39
S1130030CDBF10E0A0E6B0E0ECEDF1E002C0059029
S11300400D92A036B107D9F778D0C6C0D9CF813088
S1130050910561F4AD98C7989398C69AAB9AA99AFA
S1130060929AC09A979AAA9AAC9A1EC08230910525
S113007061F4AD989398C698C79AC29A919A949A43
S1130080959A969A909AA89A08958330910561F466
S1130090AD98C7989698C39AAB9AA99A929AC09A1F
S11300A0979AAA9AAC9A0895049759F4C798939882
S11300B0C698AD9AC29A919A949A959A969A909A59
S11300C0A89A08958130910561F4AD98C7989398E2
S11300D0C69AAB98A9989298C0989798AA98AC9801
S11300E01EC08230910561F4AD989398C698C79A62
S11300F0C29891989498959896989098A8980895ED
S11301008330910561F4AD98C7989698C39AAB98DB
S1130110A9989298C0989798AA98AC98089504972B
S113012059F4C7989398C698AD9AC29891989498A0
S1130130959896989098A8980895A59ABF9A8B9A9E
S1130140BE9ABA9A899A8C9A8D9A8E9A889AA09A0B
S1130150A39AA19A8A9AB89A8F9AA29AA49A81E0A9
S113016090E075DF2FEF84E39CE0215080409040C5
S1130170E1F700C0000081E090E0A4DF82E090E0BD
S113018066DF2FEF84E39CE0215080409040E1F74C
S113019000C0000082E090E095DF83E090E057DF4C
S11301A02FEF84E39CE0215080409040E1F700C0B1
S11301B0000083E090E086DF84E090E048DF2FEFEA
S11301C084E39CE0215080409040E1F700C00000AF
S10F01D084E090E077DFC3CFF894FFCF09
S9030000FC
